:020000040800F2
:1000000060100020912D0008195000087D2D000877
:100010007D2D00087D2D00087D2D00087D2D000818
:10002000000000000000000000000000412E000859
:100030007D2D000800000000E92D00087D2D00083E
:10004000590500088D2F00088D2F00088D2F0008FE
:100050008D2F00088D2F00088D2F00088D2F000890
:100060008D2F00088D2F00088D2F00088D2F000880
:100070008D2F00088D2F00088D2F00088D2F000870
:100080008D2F00088D2F00088D2F00088D2F000860
:100090008D2F00088D2F00088D2F00088D2F000850
:1000A0008D2F00088D2F00088D2F00088D2F000840
:1000B0008D2F00088D2F00088D2F00088D2F000830
:1000C0008D2F00088D2F00088D2F00088D2F000820
:1000D0008D2F00088D2F00088D2F00088D2F000810
:1000E0008D2F00088D2F00088D2F00088D2F000800
:1000F0008D2F00088D2F00088D2F00088D2F0008F0
:100100008D2F00088D2F00088D2F00088D2F0008DF
:100110008D2F00088D2F00088D2F00088D2F0008CF
:100120008D2F00088D2F00088D2F00088D2F0008BF
:100130008D2F00088D2F00088D2F00088D2F0008AF
:100140008D2F00088D2F00088D2F00088D2F00089F
:100150008D2F00088D2F00088D2F00088D2F00088F
:0C0160008D2F00088D2F00088D2F000847
:10016C0053B94AB9002908BF00281CBF4FF0FF3112
:10017C004FF0FF3000F00CB8ADF1080C6DE904CE77
:10018C0000F008F8DDF804E0DDE9022304B0704764
:10019C00704700BF2DE9F04786468C460846089EFE
:1001AC00154674461946002B40F0C1808542B2FAC0
:1001BC0082F245D94AB1C2F1200300FA02FC954003
:1001CC0094402EFA03F343EA0C0C4FEA154EA8B2F6
:1001DC00230CBCFBFEF80EFB18CC08FB00F943EA21
:1001EC000C43994528D9EB1808F1FF3704D29945EF
:1001FC0002D9A8F102072B44A3EB0903A4B2B3FB69
:10020C00FEFC0EFB1C330CFB00F044EA0344A04242
:10021C0014D92C190CF1FF3304D2A04202D9ACF141
:10022C0002032C44241A43EA07401EB1D440002395
:10023C0034607360BDE8F0874746DDE76346F1E75D
:10024C0092BB431B01214FEA154EAFB2200CB3FBFE
:10025C00FEFC0EFB1C330CFB07F840EA03439845ED
:10026C0061D9EB180CF1FF3004D2984502D9ACF1EE
:10027C0002002B44A3EB0803A4B2B3FBFEFC0EFB61
:10028C001C330CFB07F744EA0344A7424DD92C1945
:10029C000CF1FF3304D2A74202D9ACF102032C4477
:1002AC00E41B43EA0040C0E7C2F1200395409440B0
:1002BC0020FA03F12EFA03F34FEA154E9040AFB239
:1002CC000343B1FBFEFC0EFB1C10190C0CFB07F8D6
:1002DC0041EA0041884522D969180CF1FF3004D25B
:1002EC00884502D9ACF102002944A1EB08019BB26C
:1002FC00B1FBFEFC0EFB1C110CFB07F743EA0143A0
:10030C009F420ED9EB180CF1FF3104D29F4202D957
:10031C00ACF102012B44DB1B41EA004193E7604640
:10032C00E3E76146F7E76046A4E76346B8E7834234
:10033C0006D916B9002108467CE7C6E900E0F9E7C2
:10034C00B3FA83F78FB9834201D3724508D8BEEB59
:10035C00020460EB030301209C461EB9002169E7EF
:10036C003846FAE7C6E9004CF8E7C7F1200CBB4069
:10037C000EFA07F522FA0CF42EFA0CF1BA401C43D3
:10038C0020FA0CF3B8404FEA144901431FFA84FEDB
:10039C00B3FBF9F809FB18300B0C08FB0EFA43EA17
:1003AC0000439A4540D9E31808F1FF3004D29A452E
:1003BC0002D9A8F102002344A3EB0A0389B2B3FBD0
:1003CC00F9F809FB183308FB0EFE41EA03418E4590
:1003DC002CD9611808F1FF3304D28E4502D9A8F14B
:1003EC000203214443EA0040A1EB0E01A0FB02985A
:1003FC004145CE46434602D306D14D4504D2013881
:10040C00B9EB020E68EB0403002EA7D0B5EB0E027D
:10041C0061EB030101FA0CFC22FA07F3F9404CEAF8
:10042C000303C6E9003199E74046C5E74346D9E7DF
:10043C002DE9F041204888B004F08EF91F4C20487B
:10044C00206004F007FF80B303251E4E1E4F0DF1F4
:10045C0007030022029301238DF810200DF10602F0
:10046C00CDE905230393072320688DF807508DF8F9
:10047C001C309DF81C30826843F002038DF81C3050
:10048C00D2F8088002A928230222C047014650B99D
:10049C0038469DF8061004F04DF900214FF4007019
:1004AC0004F08CFFD3E73046F5E7084804F042F936
:1004BC00012008B0BDE8F081545C0008E801002080
:1004CC00605600088F5C0008785C0008635C0008CC
:1004DC00014B1B68184700BF00000020014B18603F
:1004EC00704700BF0000002030B585B004460D46B3
:1004FC0010220021684604F0C2FF02238DF802305E
:10050C00044B2A4621466846019304F045F905B090
:10051C0030BD00BFDD04000880B505460E46174609
:10052C00984603F019FF034605F014F80446DFF86B
:10053C001890424649F8003039463046A84754F8DE
:10054C00090002F035FC00BF080000000021034B3D
:10055C000846DA68DB6803F067BA00BF0080004425
:10056C0007B501A800F0FAF89DF80530012B14D15D
:10057C009DF804308BB94FF480120B4B0B49586E1D
:10058C0003F580535A664B6B23F0E05343F0406302
:10059C004B63C3025CBF064B5A6601F0F9FD03B016
:1005AC005DF804EB04F041BC008000500040005AA0
:1005BC0000A000504FF480424FF0FF31022008B5EC
:1005CC00104B9A66104A02F5005319660F4959668A
:1005DC000F49C1F8D000BFF34F8FBFF36F8F0120CD
:1005EC00A1F54061C1F880014FF44031D96011612F
:1005FC0000221046114602F03DFCBDE808400020E8
:10060C0002F02ABC0090004000800044F7FF370045
:10061C0000ED00E0014B036000207047CC5900084E
:10062C00014B1868704700BF08000020014B186090
:10063C00704700BF08000020084B1B6F03F0070336
:10064C00022B04D0032B05D0012B05D0FEE7044B65
:10065C0018687047034BFBE7034870470080005055
:10066C000800002010000020002D310108B5FFF714
:10067C00E3FF054B1B6FC3F303330133B0FBF3F004
:10068C00024B186008BD00BF008000500400002021
:10069C000048704700B4C404014B1868704700BF91
:1006AC0010000020054B1860054B1B6F03F007036F
:1006BC00032B01D1FFF7DABF704700BF10000020F9
:1006CC000080005000487047002D31014FF0B443BA
:1006DC009868C0F304400C280AD8DFE800F00B0936
:1006EC0009090909072119091B1D1F000F4870472B
:1006FC00002070479B6803F04073B3F1807F11D0EA
:10070C00B3F1007F10D00A4A002B08BF1046704787
:10071C0008487047084870470848704708487047B1
:10072C00084870470848704708487047405DC60045
:10073C0000093D00C0EA210180BA8C010048E801A3
:10074C00005A62020024F40080841E0040420F0014
:10075C00014B1868704700BF0C0000204FF480322A
:10076C00064B5A6603F5E6239B69C3F38512827028
:10077C0003F03F021B0B4270037070470090005057
:10078C00B8B1036813F4E07F03F03F00C3F38212A7
:10079C000AD0012A0DD1084B41B103F58053012237
:1007AC0082401A6000207047044BF5E703F50053B4
:1007BC00F5E70E20704700BF688000506480005041
:1007CC0030B58BB06D468F4C0FCC0FC554F8043B35
:1007DC0068462B604FF07E6393F89C306D46FF2B80
:1007EC0008BF2C238DF8013001F058FA322001F0AB
:1007FC0093FA0FCC0FC50FCC0FC594E8030085E816
:10080C000300814BD3F84C21140338D5A3F5FE43D8
:10081C001C884FF6FF739C4208BF5F248DF819406B
:10082C0001F036FA044484F3080478488DF8184033
:10083C00FFF738FF684601F067F9322001F072FAD1
:10084C007349744B0320CDE9001300230125CDE936
:10085C0002038020CDE9045501F026F8052812D0BA
:10086C002946312000F0F6FE684601F035FB0146C2
:10087C00F9B9312000F0EEFE01200BB030BDD3F8F9
:10088C005041E4B2CAE7644C2946236F312023F06F
:10089C00070343F00103236700F0DCFE684601F018
:1008AC001BFB236F014623F0070343F0020323676E
:1008BC00DEE75A4801F0F6FB574C0121362000F0D8
:1008CC00C9FE002001F034FA01F0E4FA236F002095
:1008DC0023F0070343F002032367236F23F47443CD
:1008EC0043F48063236704F03AFB4D4BD3F8FC20B0
:1008FC00D2017AD5D3F8FC2022F08072C3F8FC2008
:10090C00D4F8802022F0030242F00102C4F88020C7
:10091C00D4F88020C4F88020D3F8FC2042F08072F8
:10092C00C3F8FC203C4CD4F8203123F0070343F0EF
:10093C000103C4F82031D4F8283123F0070343F025
:10094C000103C4F82831D4F8803123F0030343F0B9
:10095C000103C4F88031D4F8403123F0030343F091
:10096C000203C4F84031D4F8603123F0030343F0A0
:10097C000203C4F86031D4F8403223F0030343F08F
:10098C000203C4F84032D4F8003223F0070343F0DA
:10099C000203C4F80032D4F8083223F0070343F002
:1009AC000203C4F80832D4F8703223F0030343F086
:1009BC000103C4F87032D4F8203223F0070343F05B
:1009CC000103C4F8203201F087F84FF0E0221369DC
:1009DC00002063F004031361D4F8603223F00703A2
:1009EC0043F00103C4F8603247E7D4F8803023F0B9
:1009FC00030343F00103C4F88030D4F88030C4F80A
:100A0C0080308FE75C5900080080E00FC01753025C
:100A1C00802FA604FF0E7F0700800050C0EA210142
:100A2C0000ED00E0034B5A68D20702D5DA69002AC0
:100A3C00F9D1704700800A50054B9A689107FCD495
:100A4C005A689207F9D4DA69002AF6D1704700BFC8
:100A5C0000800A5008B5FFF7E5FF0222014B1A612E
:100A6C0008BD00BF00800A5008B5FFF7E5FF012262
:100A7C00024B03F580514A601A6108BD00800A5090
:100A8C0008B5044B5968012903D1FFF7E3FF024B6A
:100A9C00596008BD00800A5000A00A5010B5064CE1
:100AAC00FFF7CAFF6368012B03D1FFF7E9FFFFF7DC
:100ABC00C3FF0378E36010BD00800A50B8B94A68E0
:100ACC000B7812B1127843EAC2034A7843EA420324
:100ADC008A6812B1127843EA82138A7843EA820355
:100AEC00CA6812B1127843EA4223014A93647047F0
:100AFC0000800A5008B9014B5964704700900A50A5
:100B0C0008B9014B5964704700A00A5008B9014B51
:100B1C001964704700A00A5010B9024B186C70474A
:100B2C000020704700800A5048B911B1012903D048
:100B3C007047044BD86C7047024B186D70470020FF
:100B4C00704700BF00800A5040B911B1012903D091
:100B5C007047034BDA647047014B1A65704700BF4E
:100B6C0000800A5010B50123002486B01448ADF85B
:100B7C000830CDE903448DF804408DF80A40059403
:100B8C0004F0EDF801A8FFF789FF204602A98DF8C3
:100B9C000840FFF793FF20460F21FFF7B1FF0F210D
:100BAC002046FFF7B3FFFFF75FFFFFF73BFF08227D
:100BBC00044B9C61044BC3F888219A6006B010BDAD
:100BCC00D859000800800A5000E100E008B5FFF792
:100BDC0029FF014B986908BD00800A50F8B50446FE
:100BEC0004F0D4F90746FFF71DFF164B9D6904F07E
:100BFC001EF906460020FFF78FFF830704D4731BF2
:100C0C00032B01D8AE420FD10021631B022B98BFDE
:100C1C00EC1C0846B4F1FF3F2CBF2246621EFFF7C6
:100C2C0093FF022004F007F9384604F0B3F9064AA2
:100C3C00137833B103498B6C43F001038B640023AD
:100C4C001370F8BD00800A5034000020830700F0B8
:100C5C00010109D50122064B41F002011A70054A27
:100C6C00936C23F0010393640020FFF749BF00BF8E
:100C7C003400002000800A50830742BF0222014B3F
:100C8C001A64704700900A5007B5044B01A91879F3
:100C9C0004F060F8019803B05DF804FBCC5900082F
:100CAC0030B50F4C4161236893B9206083600EE02E
:100CBC00891A41619A681D4672B113465A698A4273
:100CCC00F6D93DB1A86083605A69521A5A6130BD99
:100CDC000025F3E72060F6E798608260F7E700BF35
:100CEC00F401002038B5FFF771FF0025084B094CC3
:100CFC001A682368C31A2AB123B15169994203D3E4
:100D0C00C91A5161206038BD55615B1A9268F2E7CF
:100D1C00F4010020F001002038B5134D2B685B69FD
:100D2C0093B1124A022014681C4404F084F8204643
:100D3C00FFF754FF00230E492A680B70D0888007F8
:100D4C0009D501230B7038BD022004F074F8022081
:100D5C00FFF792FFEEE79268002AF4D05069034443
:100D6C00012BEBD9EFE700BFF4010020F0010020CC
:100D7C001703002070B516469DF81420C0E9033601
:100D8C000271049ABDF818300260002204460D4628
:100D9C008260C380EEB9FFF719FF2844A0619DB1B2
:100DAC002E4604F0F3F80546FFF79CFF314620462B
:100DBC00FFF776FF104B1B68A34201D1FFF7ACFF86
:100DCC00284604F0E7F802E0E36865617BB900208F
:100DDC0070BDFFF7FBFE3044A061002DE0D1E3684D
:100DEC006561002BDDD0204621689847D9E7204665
:100DFC0021689847EBE700BFF401002000220C4962
:100E0C000B687BB183420AD183687AB193608368A3
:100E1C001BB15A6941690A445A61002070471A464D
:100E2C009B68EEE70028EFD0022070470B60EEE7DE
:100E3C00F401002070B504F0B0F8144E0546347877
:100E4C00FCB9134B1C60134B1C60134B1C80FFF73D
:100E5C0089FE012003F0EFFFFFF716FF0F4B024650
:100E6C00186020B9284604F09EF8232070BD234654
:100E7C0040F2E7310A48FFF773F90A4B1860012377
:100E8C003370284604F08FF80020EFE71803002099
:100E9C00F4010020F001002014030020F8010020D0
:100EAC0018FCFFFFEC01002070B5044640B304F0C1
:100EBC006DF8144E0546FFF715FF3068A04209D0B7
:100ECC002046FFF79BFF0446B0B1284604F062F8B9
:100EDC00204670BDFFF792FF04460028F5D1336819
:100EEC003BB90220FFF7B2FE284604F053F8002469
:100EFC00EEE7FFF711FFF7E73368002BF4D1F0E7CB
:100F0C002224E5E7F401002038B50C460546A8B1CB
:100F1C00A1B100230B7004F040F80121084B1B68B1
:100F2C0033B904F040F8002038BD9D4204D1217043
:100F3C002278002AF9D0F4E79B68F1E72220F3E746
:100F4C00F4010020014B1868704700BFF801002025
:100F5C00C2072DE9F04704460BD5474A13880133E5
:100F6C009BB21380FFF7BEFE444B1B680BB1FFF71F
:100F7C00D3FEA3077ED504F010F84FF00009054608
:100F8C004E46FFF7AFFEC8463C4F3C680CB1636958
:100F9C008BB100223A4B012E1A7003D119F0020FBB
:100FAC0018BF1E70002C61D0FFF7B6FE2846BDE8B6
:100FBC00F04703F0F8BF23465A693AB91A792179F8
:100FCC00914288BF1C469B68002BF5D1284603F044
:100FDC00EAFF2569DDB1FFF7F9FDA269A0EB020973
:100FEC004FEAE9734D4578EB030311DA2369134497
:100FFC00A361E368B4F80690013613B1204621686A
:10100C00984703F0CAFF0546FFF76CFEBDE7A946FB
:10101C0003F0C3FF82462046FFF7F0FE504603F074
:10102C00C2FF2369002BE4D0A38BB5EB090533B1C8
:10103C00E28B13449BB2B3F57A7F0FD2E38303F0B8
:10104C00ACFF814629462046FFF72AFEA369226998
:10105C0048461344A36103F0A6FFCAE7A3F57A73CD
:10106C00E383A369013D013BA361E8E70220FFF79D
:10107C00EDFD9BE7BDE8F08714030020F401002090
:10108C0016030020044BD3F88420D206FBD4D3F8EB
:10109C008400C0F381107047004000502E4B9842E2
:1010AC004AD022D82D4B984240D014D82C4B984281
:1010BC0039D00AD82B4B984232D02B4B98422FD098
:1010CC002A4B98422CD000207047294B9842FAD1D9
:1010DC00284B186F7047284B98422AD0274B9842C0
:1010EC00F1D1244BD3F880007047254B98422BD07C
:1010FC0009D8244B984223D0234B9842E3D11D4B63
:10110C00D3F88C007047214B984221D003F574031F
:10111C0003F510539842D6D1164BD3F8980070476C
:10112C00144B986D7047134B586E7047114B586F9A
:10113C007047104B986F70470E4BD3F88400704774
:10114C000C4BD3F8880070470A4BD3F890007047CB
:10115C00084BD3F8940070470048E8010024F400D1
:10116C00C0CF6A0080841E0000093D0040420F0081
:10117C00405DC6000080E00FC0EA210180BA8C01FE
:10118C00007E560380D54302006CDC020090D00335
:10119C0038B5104B0546D3F880300C4603F00303EA
:1011AC00022B0BD0032B0DD0012B0FD1FFF744FAE0
:1011BC000E2305B1286004B1236038BDFFF786FA11
:1011CC000723F6E7FFF72CFA0623F2E7002318466D
:1011DC00EFE700BF0080005038B5184B0546D3F838
:1011EC0020010C4600F00700062823D8DFE800F0A9
:1011FC00040A0E16121A1E00012305B1286004B150
:10120C00236038BDFFF70CFA0523F6E7FFF744FA25
:10121C000323F2E7FFF75AFA0723EEE7FFF752FA38
:10122C000223EAE7FFF7FCF90623E6E7FFF734FAB7
:10123C000423E2E700231846DFE700BF00800050DC
:10124C0038B5174B0546D3F828310C4603F0070385
:10125C00013B052B20D8DFE803F003131B0F0B1702
:10126C00FFF7DEF9052305B1286004B1236038BD12
:10127C00FFF7D6F90623F6E7FFF728FA0723F2E77C
:10128C00FFF70AFA0323EEE7FFF706FA0423EAE76F
:10129C00FFF718FA0223E6E700231846E3E700BF3E
:1012AC000080005073B50D460021114B0191D3F80D
:1012BC008041064604F00304022C13D0032C0CD0FE
:1012CC00012C13D101A8FFF787FF10240EB1019B4D
:1012DC00336005B12C6002B070BDFFF7F7F907243D
:1012EC000190F3E7FFF7EEF90190EFE70C46EDE71D
:1012FC0000800050002337B50193164B0546D3F8F8
:10130C0020320C4603F00703042B21D8DFE803F04E
:10131C00030B11161B0001230DB1019A2A6004B1B5
:10132C00236003B030BD002101A8FFF789FF122311
:10133C00F2E7FFF7CBF907230190EDE703F002FD8D
:10134C000A230190E8E7FFF703FA09230190E3E78A
:10135C000023E1E70080005038B5104B0546D3F868
:10136C0040310C4603F00303022B0BD0032B0DD0A2
:10137C00012B0FD103F0E6FC0A2305B1286004B160
:10138C00236038BDFFF7E4F90923F6E703F0DDFC31
:10139C000C23F2E701230020EFE700BF0080005090
:1013AC00002337B50193164B0546D3F860320C4633
:1013BC0003F00703013B032B1FD8DFE803F0020EF9
:1013CC001914002101A8FFF707FF10230DB1019A92
:1013DC002A6004B1236003B030BD002101A8FFF7DF
:1013EC00BBFF1123F2E7FFF771F907230190EDE73B
:1013FC00FFF768F902230190E8E70023E6E700BF56
:10140C0000800050002337B50193164B0546D3F8E6
:10141C0094320C4603F00703013B032B1FD8DFE883
:10142C0003F0020E1914002101A8FFF7D5FE1023BA
:10143C000DB1019A2A6004B1236003B030BD0021C4
:10144C0001A8FFF789FF1123F2E7FFF73FF9072304
:10145C000190EDE7FFF736F902230190E8E700234E
:10146C00E6E700BF0080005038B5144B0546D3F8B2
:10147C0000020C4600F0070004281BD8DFE800F03F
:10148C0003090D111500012305B1286004B1236077
:10149C0038BD03F057FC0A23F6E7FFF759F9092387
:1014AC00F2E703F052FC0C23EEE7FFF7DFF80F2313
:1014BC00800AE9E700231846E6E700BF00800050E9
:1014CC0038B5144B0546D3F808020C4600F007005B
:1014DC0004281BD8DFE800F003090D1115000123C7
:1014EC0005B1286004B1236038BD03F02BFC0A233E
:1014FC00F6E7FFF72DF90923F2E703F026FC0C239E
:10150C00EEE7FFF7B3F80F23800AE9E7002318464C
:10151C00E6E700BF0080005038B5104B0546D3F805
:10152C0040320C4603F00303022B0BD0032B0DD0DF
:10153C00012B0FD103F006FC0A2305B1286004B17E
:10154C00236038BDFFF704F90923F6E703F0FDFB30
:10155C000C23F2E701230020EFE700BF00800050CE
:10156C0038B5104B0546D3F860310C4603F0030335
:10157C00022B0BD0032B0DD0012B0FD103F0E2FB70
:10158C000A2305B1286004B1236038BDFFF7E0F8E9
:10159C000923F6E703F0D9FB0C23F2E70123002023
:1015AC00EFE700BF00800050B0F5207F1FD009D8B6
:1015BC00B0F5007F15D003D868B1B0F5C07F0AD064
:1015CC0000200CE0B0F5607FFAD10B4BD3F8800013
:1015DC00C0F3011003E0084B186FC0F30330013067
:1015EC007047054BD3F89000C0F30460F7E7024B4B
:1015FC00186FC0F38020F2E70080005002464FF4D1
:10160C008030104B10B598660020FFF7CDFF50438B
:10161C0041F671320C4BDC69DA635A6804F480349D
:10162C0022F4401259B90949884294BF0020012084
:10163C00000502435A600CB10022DA6310BD044964
:10164C00F2E700BF0090005000000350005A620205
:10165C00002D3101430905D0012B0CD0022B084B76
:10166C0018BF002300F01F0039B103F5805301228D
:10167C0082401A607047034BF4E703F50053F6E71A
:10168C0068800050648000501FB5002180280446FB
:10169C00CDE9001100F0A58035D85E2846D85E282B
:1016AC0044D8DFE800F0A24343434343434343435E
:1016BC0043434343434343434343434343434343EE
:1016CC00434343434343A2AAA2AABABABABABAAA98
:1016DC00C44DDA714DAAAAAA43434343434343433F
:1016EC00AAAAAA79E4AA434343434343434343434B
:1016FC00434343BAA2A2A2DF4D4DE9885EBF4343E8
:10170C0043434399A200B0F5B06F00F090802DD800
:10171C00B0F5207F71D00CD8B0F5C07F65D0B0F596
:10172C00007F65D0B0F5807F00F08680009804B013
:10173C0010BDB0F5607F6BD00DD8B0F5407FF5D102
:10174C00FEF794FF02464FF42070FFF72DFFB2FB1B
:10175C00F0F252085AE0B0F5806F5ED0B0F5A06F91
:10176C00E4D100216846FFF7C5FDDFE7B0F5106F47
:10177C0078D016D8B0F5E06F79D00AD8B0F5C06F34
:10178C006BD0B0F5D06FD1D100216846FFF76CFE5D
:10179C00CCE7B0F5F06FC9D100216846FFF7E0FE49
:1017AC00C4E7B0F5406F3DD013D8B0F5206F63D0CF
:1017BC00B0F5286FBAD10021324B0391D3F87032B7
:1017CC0003F00303012B02D103A8FFF7C5FD039B14
:1017DC003CE0B0F5486FA9D100216846FFF712FE36
:1017EC00A4E7FEF729FF0090A0E7FEF73FFFFAE71A
:1017FC00FEF722FF0246204604E0FEF737FF0246C2
:10180C004FF42070FFF7D0FEB2FBF0F200928DE7A0
:10181C0001A8FFF7BDFC019AEDE700216846FFF730
:10182C00DBFC83E700216846FFF70AFD7EE7002119
:10183C006846FFF737FD79E74FF0E02302911B690B
:10184C005B0705D5FEF712FF0290029B00936DE734
:10185C0003A902A8FFF780FDF7E700216846FFF710
:10186C007BFD63E700216846FFF72AFE5EE7002157
:10187C006846FFF751FE59E700216846FFF790FDD7
:10188C0054E700BF0080005008B58020FFF7FCFE35
:10189C00034B98429EBF4FF48032024B1A6708BD2F
:1018AC00005A620200A000501FB503460020B3F599
:1018BC00807F019000F0C18064D85D2B55D84C2BF3
:1018CC0007D82D2B48D8232B2CD8019805B05DF8C0
:1018DC0004FB4D3B102BF8D801A252F823F000BFAB
:1018EC003D1A0008D7180008D7180008D7180008A8
:1018FC00F3190008D7180008D7180008C11A0008F7
:10190C00111A0008B7190008B71A0008D7180008F0
:10191C00D7180008D7180008D7180008D7180008DF
:10192C00CB1A0008243B092BCFD801A252F823F084
:10193C003D1A00083D1A00083D1A00083D1A00081F
:10194C003D1A0008D7180008331A0008D7180008E9
:10195C00D3190008731A00083D2B7FD03E2BB4D14D
:10196C00002001A9FFF7D8FDAFE7802BADD1594B73
:10197C001B6F03F00703013B032BA6D8DFE803F032
:10198C00514E858DB3F5F06F68D021D8B3F5B06F9B
:10199C0049D00FD8B3F5607F00F0838095D3B3F5B1
:1019AC00806F45D0B3F5A06F8FD1002001A9FFF750
:1019BC00A1FC8AE7B3F5D06F55D0B3F5E06FCFD06B
:1019CC00B3F5C06F81D1002001A9FFF7C5FC7CE7FE
:1019DC00B3F5206F6ED00BD8B3F5086F48D0B3F5C4
:1019EC00106F7FF472AF002001A9FFF769FD6CE75F
:1019FC00B3F5406F59D0B3F5486F60D0B3F5286F8D
:101A0C007FF463AF334BD3F8703203F00303012B35
:101A1C005AD0022B0CBF1523002300E005230193A1
:101A2C0053E70223FBE7002001A9FFF73BFC4CE73F
:101A3C00002001A9FFF7D0FB47E74FF0E02302900D
:101A4C001B695B0705D5FEF711FE0D230393039B62
:101A5C00E5E703A902A8FFF77FFCF8E7002001A93E
:101A6C00FFF77EFD31E7002001A9FFF7FDFC2CE715
:101A7C00184BD3F8003103F00303022B07D0032BD0
:101A8C0009D0012B0BD1FEF707FE0323C7E7FEF7A6
:101A9C005FFE0923C3E703F053F90823BFE70123D3
:101AAC00BDE701A9FFF774FB0FE7002001A9FFF7C1
:101ABC00C7FB0AE7002001A9FFF772FC05E700202D
:101ACC0001A9FFF79FFC00E7002103A8FFF744FCE6
:101ADC001123A4E7008000504FF48032074B0849D3
:101AEC00586E03F580535A664B6A23F001034B6220
:101AFC00C3035CBF034B5A66704700BF00800050A5
:101B0C0000C0075000A0005038B504468020FFF7F5
:101B1C00CBFE032800F08A804FF48012544B4FF018
:101B2C00A0615A6645F60E03524AC2F88030524BF9
:101B3C0099624FF4803103F580539962936DD90308
:101B4C00FCD4916D11F08041FBD1D4E900031B054D
:101B5C0043EA0063E07B0343207B43EA0043607B62
:101B6C0043EA0033A07B43EA801313619069D4E904
:101B7C0004531B0643EA856300F000400343A07E38
:101B8C000343207E43EA0043607E43EA00239361D3
:101B9C00136AE06923F00F030343003818BF0120D8
:101BAC00E57E43EA850343EAC0031362E369334DE0
:101BBC00002B3CD194F82430916A94F82000DB007F
:101BCC00294043EA40130B4394F8211043EA0113D4
:101BDC0043F4803393622A49264A936D31EA030316
:101BEC00FBD14FF08071244881621369A56823F4FE
:101BFC00700343EA055313614FF00043836194F87B
:101C0C0022300BB91F4B996294F823303BB94FF437
:101C1C0080321C4B9A62174A936D5B00FCD494F88B
:101C2C0025301BB1134B184AC3F8802038BD022B4A
:101C3C0008D11161154891614FF408524FF47F415E
:101C4C0003F06BF90B4994F822308A6A94F820005F
:101C5C001B062A4043EA4013134394F8242043EA1A
:101C6C00C20394F8232043EA02438B62D7E700BFF8
:101C7C00009000500040005A0050005AC7FFFEFE72
:101C8C00030001000060005AF1A7FFFF3440005A26
:101C9C00014B93F900007047350000204FF4000110
:101CAC001B4A437810B551664FF4D151022402F50A
:101CBC00B832516217494F2B4C604FF0010428BFCA
:101CCC004F2301F580514C601169C903FCD4017894
:101CDC0043EA01235361D0E901131B0143EA0123B9
:101CEC00417B0B43017B43EA41039360C37B817BC4
:101CFC001B0143EA4113417C0B43017C43EA410342
:101D0C005360837C13B16FF4D153536210BD00BF89
:101D1C000090005000100250014B1880704700BF1B
:101D2C0032000020014B1880704700BF30000020AB
:101D3C004FF4800208B5184B5A660223174A5360B9
:101D4C00936813F48033FBD1012822D1FEF7A4FC55
:101D5C00134B984215D003F5122303F5F863984200
:101D6C0013D0104B00EB8002400AB3FBF0F3520A85
:101D7C000A49CA620B6301234B620022074B5A606B
:101D8C0008BD45F67A13084AF2E745F61A03074AE6
:101D9C00EEE75362F1E700BF0090005000400250A4
:101DAC0000F0490264666666D8B80500BBCF050032
:101DBC00B0F5207F10B50C465DD008D8B0F5007F8B
:101DCC004ED003D8C0B1B0F5C07F15D010BDB0F562
:101DDC00607FFBD12C4B4C1ED3F8FC202B4912F00E
:101DEC00807F4FEA041427D1D1F8803023F03003E0
:101DFC002343C1F88030E9E703F09EF803F0AAF81A
:101E0C004FF48031224B214A1967136F013C23F4A4
:101E1C00704343EA04331367FEF728FC0446FFF7CC
:101E2C0031F9C0F10201204603F08EF800F042F8BF
:101E3C00BDE81040FFF728BDD3F8FC2022F08072DB
:101E4C00C3F8FC20D1F8802022F030022243C1F8E4
:101E5C008020D3F8FC2042F08072C3F8FC20B5E758
:101E6C000A4A4C1ED2F8903023F0F85343EA04632C
:101E7C00C2F89030AAE7054A4C1E136F23F4806316
:101E8C0043EA84231367A1E700ED00E000800050D3
:101E9C000090005008B50121022000F097F903F0E2
:101EAC004BF803F057F84FF48032014B1A6708BD1A
:101EBC000090005008B54FF4C070FFF7E5FBBDE88B
:101ECC0008400449884294BF012102214FF420703C
:101EDC00FFF76EBF80F0FA024FF4C02201212DE90A
:101EEC00F0410746684B5A66684A03F598335C68BC
:101EFC0051605D6815F00205FBD13E68FFF7C2F832
:101F0C00012805D1624B9E4202D90020BDE8F08128
:101F1C00604A002311461068864202D350688642FC
:101F2C0005D90133192B02F11002F4D1002301EB76
:101F3C000313D3E9028028B1FFF7B0F800F07F005B
:101F4C0048EA00088020FFF7AFFC05287AD102F0A0
:101F5C00F3FF02F0FFFF4FF480324B4B4FF4C07095
:101F6C001A67FFF721FB0128054667D102214FF4C0
:101F7C00C070FFF71DFF0126474BDA6812F0060F01
:101F8C00FBD19968C3F808809A6882EA080212F4B7
:101F9C00F81F6BD1BA88FB8843EA02433F4AD360EF
:101FAC00BB68032B50D1A2F5A032D2F8003123F03C
:101FBC00030343F00103C2F800317B7D3A7D9B01A2
:101FCC0043EA82033A6913433A7B43EA4203334AB6
:101FDC0093603868FEF72AFB002707222B4B1A6107
:101FEC000122A3F580535A60A3F580531C6914F0A9
:101FFC000704FBD08020FFF757FC052817D126B12A
:10200C0029464FF4C070FFF7D3FEFEF72FFB0546B1
:10201C00FEF706FBFEF704FBFFF734F8C0F10201F4
:10202C00284602F091FFFFF745FFFFF72DFC002F2C
:10203C007FF46BAF631E5842584167E7022801D109
:10204C00042194E7002697E7092B07D1144AD2F80C
:10205C00003123F0030343F00203ACE7082BACD1AF
:10206C000F4AD2F8003143F00303A4E714F0010443
:10207C00996001D00127B0E78020FFF715FC0528F7
:10208C007FF443AF0127BAE70090005000E0015005
:10209C00005A6202DC5900080000015000C00150D7
:1020AC0000800050304B314A984251D020D8A3F5D3
:1020BC00B703A3F55863984246D00DD82C4B9842E1
:1020CC0031D02C4B984239D02B4B4FF400219842F5
:1020DC001DD00023516622E0284B4FF4002198427A
:1020EC00F7D1274BD3F8BC30516623F0407316E080
:1020FC00244B984230D0244B984231D0234B4FF490
:10210C0000219842E5D11E4BD3F8C830ECE71C4BAC
:10211C00D3F8A030516623F0407343F000734FF0B6
:10212C00B442936070474FF40021154BD3F8A030A4
:10213C00516623F0407343F08073F0E7104BD3F8F3
:10214C00A0304FF40021CFE70D4BD3F8B830F8E7AF
:10215C000B4BD3F8C030F4E7094BD3F8CC30F0E795
:10216C00074BD3F8D030ECE7C0EA210100900050C7
:10217C0080841E0000093D0040420F000024F40042
:10218C000080E00F0048E801005A620280BA8C011E
:10219C0007B5094B18689A889B7900906846ADF88A
:1021AC0004208DF8063000F0BFF8092000F0F4F898
:1021BC00002003B05DF804FBC4590008024A536BBD
:1021CC000342FCD1704700BF00400950F8B50446EB
:1021DC001C4BD3F88420D106FBD4D3F88430C3F342
:1021EC0081139C422CD0FEF727FA012C064602D113
:1021FC00214602F0A9FE02F0C9FE4FF00072124B0C
:10220C0007465A66204602F0D1FE4FF480630D4D0E
:10221C00621E93402B676B6E9A0103D4D5F8843001
:10222C009B060AD5384602F0B5FE022C08D1304682
:10223C00BDE8F840002102F087BED5F88430EAE70B
:10224C00F8BD00BF004000500060005010B50C46B7
:10225C0008B9FEF7F1F9074B21461B783BB1064B49
:10226C00984204D80120BDE81040FFF7AFBF022010
:10227C00F9E700BF19030020005A62024FF0004238
:10228C0038B5244B244C5A664AF6CD33656C01465E
:10229C0005F00105236428BB0120FFF78FFF63685D
:1022AC00DB0715D51D4B586008461D4B226BD2071A
:1022BC000CD4984208D1072415B1174B194A1A644B
:1022CC0002F075FE204638BD0130EFE79842F2D09F
:1022DC000024F1E70132236B13F0080305D08A4286
:1022EC00F8D1E8E700220E49F5E78A42E3D0202135
:1022FC000A4A91620121A2F5805251600649084AAE
:10230C00886A800603D49342D5D00133F8E7934210
:10231C00DDE700BF009000500040095000600950FC
:10232C0040420F003254FFFF4FF0004238B5164BBD
:10233C0001465A664AF6CD33144C154A656C236433
:10234C0043780B205B0043F00103D363FFF736FFA8
:10235C0063688A7823F4F87343EA02136360CA78DB
:10236C004B7943EA0223A3600A798B7943EA02236F
:10237C0023610878FFF782FFEB0744BF054B23640A
:10238C0002F015FE012038BD0090005000400950AD
:10239C00004000503254FFFF4FF0004270B5124B1A
:1023AC0004465D6E03F580535A664AF6CD330F49E9
:1023BC0080204E6C0B64FFF701FF0B6A23F00F03B8
:1023CC000F2C94BF234343F00F030B62F30744BF5E
:1023DC00074B0B64002DA2BF4FF00042054B5A6611
:1023EC0002F0E5FD70BD00BF0080005000400950B8
:1023FC003254FFFF00A00050072A2DE9F04115468A
:10240C0098464FF0030401F003072DD89600B44012
:10241C0000FA06F221461C4802F0CAFD21461B4870
:10242C0007FA06F202F0C4FD194B1A499DF8180080
:10243C00B8F1000F18BF1946012303FA05F50D601A
:10244C00154B1649002818BF0B461D60144B103154
:10245C00C3F820549DF81C0003F22443002818BF35
:10246C000B461D60BDE8F081A2F10806B600B44031
:10247C0000FA06F221460B4802F09AFD21460A4862
:10248C0007FA06F2CEE700BF00C4035008C403509D
:10249C0010D4035010E4035014E4035014D403502C
:1024AC0000E0035004C403500CC403502DE9F04168
:1024BC0005460F461E4690464AB101233022194C60
:1024CC008B4002FB004436B304F5825423600F2189
:1024DC00072F05EB450388BFA7F108044FEA031348
:1024EC00114895BFBC00A40004330C3308FA04F265
:1024FC00A140184402F05CFDB8F1000F09D1012392
:10250C003021084ABB4001FB05223EB102F5825244
:10251C001360BDE8F08104F50154D7E702F50152D0
:10252C00F6E700BF00C0035030C00350F8B50546B5
:10253C000E4614465AB303F00307836823F4407322
:10254C00836002F023FDAA6882EA072303F4407338
:10255C005340AB6002F01EFD36B9B5F1B64F17D142
:10256C002E20FFF791F80646AB680C4BDA5D624300
:10257C000DD0A2EBC403013B3344B3FBF2F3AA68C6
:10258C00013B920702D5002B08BF0123AB61F8BDBC
:10259C00034B9D42E8D12F20E3E700BFB55C000858
:1025AC000080065038B500230E4A036400F5005332
:1025BC00DA634A7804460D4600F108037AB903F54C
:1025CC00805302221A602046D5E901122B7BFFF7BB
:1025DC00ADFF20462978BDE8384002F0F8BC03F581
:1025EC000053EEE7FFFF1F00B0F1B64F70B519D0E6
:1025FC00804B984240F0FA807F4B9A68C16B11F483
:10260C00C06F15D08E050FD5FD225A7009221A7095
:10261C000022026493F90110012900D15A7093F938
:10262C00010070BD754BE8E74D05EFD5FE22ECE7D8
:10263C001C78082C00F2D680DFE814F00900210089
:10264C0047005500720081009F00A900CC00518802
:10265C001288CC060CD5120A02F0060242F0F002E7
:10266C00012119704263C1601A78092AD0D064E044
:10267C0002F0FE02890748BF42F00102F0E70E06A5
:10268C0009D5802100F50052D1634FF608721A80EB
:10269C000222C260E8E74D064FD5402400F50051F8
:1026AC00CC635188CC0604D5022119701278426390
:1026BC00DAE78E0769D507211970197902EBC10287
:1026CC001289012A39D10822E3E70D06D9D44C0628
:1026DC0033D5402400F50051CC635188890754D57B
:1026EC00032119708AE754881188E60643BF090A4A
:1026FC0001F0060141F0F00101F0FE01650709D57A
:10270C001C7941F0010102EBC4021289012A04BFB9
:10271C000822C26004221A700122C2604163A3E73E
:10272C000C06AED4490608D5402400F50051CC6304
:10273C0051884E0729D507221A70012071E71979A3
:10274C005D8802EBC1042689AE420FD8002401310A
:10275C00C9B25C80197154886507C1D4E60702D4EC
:10276C0001297FF64BAF08221A7091E76268691C49
:10277C005980525D42630622DEE70D0681D44C0679
:10278C00DBD5402400F50051CC630521A9E789066F
:10279C00D3D52025197900F5005402EBC101098924
:1027AC00466AE5635C88A142DDD91D7902EBC5025E
:1027BC005268651C5D8016555A888A42D3D2042211
:1027CC000129C2603FF450AF5A8801398A427FF424
:1027DC004BAF78E7CA05B0D54FF4807100F50052C5
:1027EC00D16313E74FF609321A8011E76FF003003B
:1027FC0017E700BF0080065008020020FC010020F3
:10280C00B0F1B64F10B406D0194B98422CD06FF0E3
:10281C00030010BC7047174B0269D20744BF20223B
:10282C00C2604A88940702D50C89002CEFD052075D
:10283C0002D50A8A002AEAD04FF480721A6000226C
:10284C0099601A71C023C3604369DB050ED4202242
:10285C0000F50053DA63084ADA63036C43F4FC6353
:10286C00036410BCFFF7C0BE044BD5E7436AEBE72B
:10287C0000800650FC010020FFFF1F000802002012
:10288C0070B5054616461C4621B94FF42070FEF76C
:10289C00FBFE0146402C1BD003D8DCB1202C1BD0F6
:1028AC0070BD602CFCD1042303FB06F2530803EB30
:1028BC004113B3FBF2F3094A203B02EAC303AA68B3
:1028CC0022F06002AA60AA681443AC60EB61E7E7EF
:1028DC000623E9E71023E7E70823E5E7F8FF7F0085
:1028EC00012100F5805310B5596040F6AA6341F2FE
:1028FC00050243610023094C8360C365C26000F587
:10290C0000520361C361C3649464054C8365A042A7
:10291C0004BF03654365516010BD00BFFFFF01009C
:10292C0000C0055070B50C46FFF7DAFF012300F527
:10293C0080567360A37C05461BB1836843F08043CB
:10294C008360E37C5BB1234B9D4202BF227DA3F5E8
:10295C001033C3F8C821EB6D43F08003EB65228A7A
:10296C00637B28461343E2891343EB60237BD4E952
:10297C000112FFF785FF637D1BB1AB6843F4803315
:10298C00AB60A37D1BB1AB6843F40043AB60E37D4C
:10299C00227E1B07120502F4E00203F0E04313430E
:1029AC00AB65637E023B012B4FF0020394BF0A4AD6
:1029BC000A4AC2F82037637E03F0FD03012B4FF067
:1029CC00040316BF05F50052F365D36523786B61DC
:1029DC0070BD00BF00C0055000D0035000E0035094
:1029EC0030BFFFF7FDBF00BF2DE9F04105460B4E90
:1029FC00DFF82C80324606EB0807CC1B2046094931
:102A0C0002F030FDA01942460021083C02F037FDCF
:102A1C002C6707F10800BDE8F08100BF0000000042
:102A2C00040000005C590008074A936893F90E10E3
:102A3C00002907DB526993421FBF044A536843F0D5
:102A4C0080535360704700BFE402002000ED00E0AB
:102A5C001B4BD3F8E820D3F8E420D3F8E420D107BB
:102A6C0022D4D3F8E420920720D4D3F8E4205107E1
:102A7C001ED4D3F8E42012071CD4D3F8E420D106DA
:102A8C001AD4D3F8E420920618D4D3F8E43013F017
:102A9C00800F14BF2C202520094AD2F8E43043F0D3
:102AAC00FF03C2F8E43070472620F5E72720F3E750
:102ABC002820F1E72920EFE72A20EDE72B20EBE790
:102ACC0000ED00E0154B9A6A12F0007F9A6A14BF71
:102ADC001E201D2012F0807F9A6A18BF1F2012F44E
:102AEC00801F9A6A18BF202012F4002F9A6A18BF10
:102AFC00212012F4802F9A6A18BF222012F4003F72
:102B0C009A6A18BF232012F4803F9A6A18BF2420B7
:102B1C006FEA02426FEA12429A62704700ED00E0DF
:102B2C0010B5194B0246986A9C6A10F4805F14BF6A
:102B3C001720162014F4006F9C6A18BF1820A405E7
:102B4C0009D5986B986A000404D51AB19A6A22F4D4
:102B5C0000429A6219200C4B9A6A12F4806F9A6A9E
:102B6C0018BF1A20D2050CD49B6A13F4005F18BF4F
:102B7C001C20054A936A43F47F43936200230B7035
:102B8C0010BD1B20F5E700BF00ED00E010B51C4B9D
:102B9C000246986A9C6A10F0100F14BF1120102086
:102BAC0014F0080F9C6A18BF1220A40709D5586BA3
:102BBC00986A000604D51AB19A6A22F080029A62C9
:102BCC0013200F4B9A6A12F0010F9A6A18BF142047
:102BDC0012F0200F9A6A18BF1520D40658BF9B6AB2
:102BEC00074B9A6A920642BF5A6A22F400525A6202
:102BFC009A6A42F0FF029A6200230B7010BD00BF6C
:102C0C0000ED00E0F0B5534B04465B6800268BB03A
:102C1C00C3F3080386F31188BFF36F8F02F07F4074
:102C2C00B0F17F4F21D112F001051FD0550602F0F3
:102C3C00080002D5B0B9012506E082F00402C2F307
:102C4C00800560B1EFF389840022033B8DF80720E7
:102C5C00042B0DD8DFE803F02C7175676E00EFF3D1
:102C6C008884F1E70C463546EEE735462C46EBE713
:102C7C0000239DF80720CAB902AE04F120073246A2
:102C8C0020686168083403C2BC421646F7D1099A21
:102C9C00002D5AD0C2F3080121B96FEA52226FEA13
:102CAC0042220992184602A902F0A6F90BB0F0BD17
:102CBC00284BDA6A9107DBD4DA6A002AD8DBDA6AA5
:102CCC005200D5D55A69A16942F480725A61BFF39A
:102CDC004F8FBFF36F8F5A6931F8021C22F4807248
:102CEC005A61BFF34F8FBFF36F8F4DF60272914253
:102CFC0001D12368BDE79A6AD2B232B101200DF13D
:102D0C000701FFF743FF0346B3E79A6A12F47F4FBC
:102D1C0005D001200DF10701FFF702FFF3E79A6AD6
:102D2C00B2F5803F02D3FFF7CDFEECE7D3F8E430E9
:102D3C00002B9DD0FFF78CFEE5E700200DF107017D
:102D4C00DFE700200DF10701E6E722F4FF7222F025
:102D5C000102A6E700ED00E0044B5A6942F01002B4
:102D6C005A615A6922F008025A61704700ED00E07E
:102D7C00EFF30880EFF3098101B57246FFF742FFCC
:102D8C0001BD00BF102080F3118808484FF400618A
:102D9C00401880F30988EFF314800221084380F374
:102DAC001488BFF36F8F00F07BF800002003002025
:102DBC00084B9B6883420BD1EFF3058343B1064B61
:102DCC005A6842F080525A605A6A22F400425A629F
:102DDC0002F00DBBE402002000ED00E012498A680D
:102DEC004FF030001044EFF3098C80E8F01F1020F6
:102DFC0080F31288BFF36F8F0C4F4FF000664A6957
:102E0C008A603E604FF0700414192068084C2060F2
:102E1C00506F0023536780F3118802F1300090E863
:102E2C00F01F8CF309887047E402002004ED00E0E9
:102E3C00140200201EF0040F0CBFEFF30880EFF318
:102E4C000980816911F8021C0229FFD001B5724674
:102E5C0002F0D8F801BD00BF40B2002807DB012307
:102E6C004109034A00F01F00834042F821307047AB
:102E7C0000E100E040B2002801F10101ACBF00F11B
:102E8C006040064B4FEA0111C9B2ABBF00F561407F
:102E9C0000F00F0080F800131954704714ED00E097
:102EAC0008B5FDF787FB0F4A0F4B22F07F029A60A3
:102EBC00BFF34F8FBFF36F8FD3F8882022F47002CB
:102ECC00C3F88820EFF3148323F0040383F31488EE
:102EDC00BFF36F8F00F04AFE01F0CAFA00F044F81D
:102EEC0000F084FE0000000800ED00E042F8203CF9
:102EFC00009B0B4942F81C3C019B21F0010142F85C
:102F0C00183C029B42F8081C42F8143C4FF08073AA
:102F1C0042F8043C0023203A02654367704700BF27
:102F2C002505000800B5094B15469860026F084B43
:102F3C000E461A602C4686F309880020054B9847EC
:102F4C002046002100220023034C2047E4020020ED
:102F5C00140200202F500008250500081022014BF8
:102F6C001A61704700ED00E0002310210348C218DD
:102F7C0001334B2B82F80013F9D1704700E100E0CC
:102F8C0008B5EFF30583064A103B02EBC30152F878
:102F9C00330049688847BDE80840FFF745BD00BFCE
:102FAC00745600081FB5094C094A234601210948EB
:102FBC0000F0FAF800230393074B0121E41A01A84F
:102FCC000193029400F0FAF804B010BD0000042044
:102FDC00000000206C5B00084800002010B50C7A43
:102FEC000B6804F01F0223F01F031A43CB6864091B
:102FFC0023F01F03054943EA440343F00103C1F8DE
:10300C009800C1F89C20C1F8A03010BD00ED00E084
:10301C0010B5074BD3F89030C3F30723013B98420C
:10302C0002D8FFF7DBFF10BD6FF01500FBE700BF08
:10303C0000ED00E02DE9F04F0F46144606464FF028
:10304C0000084D4D85B0B84580F29280D6F80490BA
:10305C00B9F1000F36D0B9F11F0F40F2878019F08B
:10306C001F0F40F08380D6F800A01AF01F0F7DD1FF
:10307C00504601F0EAFF834609EB0A00013801F0E3
:10308C00E4FF834572D11BF1160F6FD05C456DDDEB
:10309C00C5F898B0D5F89C10C5F898B0D5F8A03004
:1030AC0021F01F0143F01F0AD6E900321A4499425D
:1030BC0002F1FF391ED1CA4508D131465FFA8BF0B7
:1030CC0001F0CCFF08F101080C36BCE73146C5F81D
:1030DC0098B0D5F89C3022F01F0203F01F03134365
:1030EC00C5F89C30E0B201F0B9FF10F1160F3DD0DD
:1030FC00441CE7E7C5F898B0D5F8A020013B23F0B5
:10310C001F0302F01F021343CA453146E0B2C5F853
:10311C00A030E8D001F0A2FF10F1160F26D0C5F8B0
:10312C0098B0D5F89C209DF808300AF1FF3A62F36C
:10313C0004038DF80830D5F8A0309DF808205B0802
:10314C0063F347128DF80820D6E90032134400933C
:10315C0023F01F035344A3EB0903013023F01F0397
:10316C006946C0B20393FFF753FFBEE76FF0150437
:10317C00204605B0BDE8F08F00ED00E00522044BC1
:10318C00C3F89420BFF34F8FBFF36F8F704700BF0E
:10319C0000ED00E0BFF35F8F0022024BC3F89420D8
:1031AC00704700BF00ED00E010B5034C2278FFF72C
:1031BC0041FF207010BD00BF1A0300202DE9F74F0E
:1031CC00294D8A4606464FF00008AB46274FD0459E
:1031DC001BDAD6F80490B9F1000F3FD031680846DD
:1031EC00019101F032FF0199044609EB010001380D
:1031FC0001F02BFF84424FF014021D4B08D002FB50
:10320C0008F36FF015024BF8032003B0BDE8F08F04
:10321C0014F1160F2C60F8D01978A142F5DD02FBE1
:10322C0008B0C7F89840C7F89840D7F89C4000F110
:10323C000801007B64F304000871D7F8A0000C7936
:10324C00400860F347140C71D7F89C1021F01F0153
:10325C006960D7F8A01021F01F01296108F101085D
:10326C0014350C36B3E700BF1802002000ED00E067
:10327C001A030020F0B54149414CD1F89030256833
:10328C00C3F307239D4287B075D80020FFF782FF58
:10329C003C4BC1F8C030854216D13B4C01A825707F
:1032AC00FDF7B8F900250646384FAE4213D1002081
:1032BC0023783249D1F89020C2F30722934254DB91
:1032CC00FFF75CFF00202FE0616801EB0011FFF7B6
:1032DC0085FE0130DFE70199280101EB0513DA685F
:1032EC003A40B2F5001F21D0B2F5800F2BD0B2F5C9
:1032FC00801F38D15A689B680958013B22F01F0087
:10330C0003440120844623F01F0340EA4C10CDE90E
:10331C0002218DF8100002A920780593FFF778FEA2
:10332C0000281DDA6FF0150007B0F0BD5A689B68D5
:10333C000958013B22F01F0003444FF0020C0120FE
:10334C0023F01F03E1E75A689B680958013B22F000
:10335C001F0003444FF0000C062023F01F03D4E79A
:10336C0023780133237001359FE7C1F89830C1F8F9
:10337C00A00001339EE74FF0FF30D5E700ED00E0F1
:10338C00785B0008AAFF44001A0300200000F0FF3D
:10339C0008B5024B1B689847002008BD2C02002082
:1033AC00034B044A1860937843F002039370704700
:1033BC002C0200201400002008B50649064821F014
:1033CC000701C1F1005202F5802201F06CFC0020D3
:1033DC0008BD00BF671000203002002008B5074868
:1033EC0001F038FF38B10648FFF7DAFF0448FDF763
:1033FC0075F8002008BD6FF01200FBE7FC550008C3
:10340C00113400080A2838B50446074D04D1AB68BE
:10341C000D2128465B689847AB6803485B68E1B2AE
:10342C009847204638BD00BFFC5500084368002073
:10343C001A7930235A43014B9950704740D00350AE
:10344C00436800201A7930235A43014B9950704736
:10345C0040E00350436800201A7930235A43014B53
:10346C009950704740F0035073B5B2F5800F0E467B
:10347C004468194605692BD0B2F5001F0BD1012306
:10348C00164AB340C2F82434EC6824EA0304002042
:10349C00EC6002B070BD124BD3F82404F04010F075
:1034AC00010318D1B1F1007F10D0B1F1806118BFC8
:1034BC0001210123207901243246CDE90014314643
:1034CC00FEF79AFFEB68B4401C43E0E70121F1E7FB
:1034DC006FF08500DDE76FF00F00DAE700E00350D6
:1034EC0000C0035010B543681446187993031AD5DD
:1034FC00930716D512F0040F14BF0822062214F4F9
:10350C0000231CD1640308D41024302313FB004384
:10351C000F4C1B59CB4003F00103FEF7C7FF0020F3
:10352C0010BD0422EBE712F480320AD014F0100222
:10353C0009D114F0200308D013460222EDE7012331
:10354C00EBE71346E9E70123F7E70122E5E700BFC4
:10355C0030C0035010B5002401213A20FEF77AF850
:10356C00094B224602211A201C61FFF783FC2246DC
:10357C0002211920FFF77EFC1A20FFF76DFC1920A1
:10358C00FFF76AFC204610BD7C020020034B1A6931
:10359C00511C43F822001961002070477C02002066
:1035AC002DE9F0470027164BD0F81080D3F82054A3
:1035BC00DFF850A01DB1D8F81030BB4201D8BDE8DF
:1035CC00F08758F82790D9F81030DC682C4007D0D9
:1035DC00CAF82044596809B10E6819B925EA0405DE
:1035EC000137E7E78A68224002D048464B68984783
:1035FC001EB1336831461E46EFE73346FAE700BF8B
:10360C0000C0035000E00350034B1A69511C43F8EF
:10361C0022001961002070477C020020034B1A69BC
:10362C00511C43F822001961002070477C020020D5
:10363C00034B1A69511C43F8220019610020704792
:10364C007C02002010B50B4C204601F003FE70B13B
:10365C002269A1681368204623F0010313600B68EC
:10366C004FF420220021984700EAE07010BD6FF063
:10367C001200FBE7385600082DE9F04F0D461E46A8
:10368C00144687B0002A65D04368D0F81090D3F860
:10369C00048009F110074FF0020B4FF0FF324FF08E
:1036AC00FF3338467600DFF8B0A000F04BFBADF8E6
:1036BC0004602A6802926A68ADF80C202A7AD20754
:1036CC0021D5ADF806B0D9F820204046D30748BF25
:1036DC00BDF8062001A944BF42F01002ADF8062047
:1036EC00FFF78EF80646012E2BD1BAF1000F21D12F
:1036FC00384600F0F3FA002E0CBF30466FF0040091
:10370C0007B0BDE8F08F4FF00103012CADF8063087
:10371C00D9D02A7D013C12F0010F0CBF08220422E3
:10372C00ADF80620EA68E4B204922A690C35ADF8CB
:10373C001420C8E74046FEF757FF0AF1FF3A064649
:10374C00D1E7002ED4D1013C14F0FF0405F10C0597
:10375C00AFD1CDE71046D3E7E09304002DE9F04359
:10376C0085B00D466C464368D0F810805F68144BEA
:10377C000FCB84E80F00EB061FD5C5F34203013BCA
:10378C00022B1AD80F4A08F1100652F823904FF06A
:10379C00FF324FF0FF33304600F0D4FA2146384662
:1037AC00C8F82050CDF80890FEF7FCFE304600F02B
:1037BC0095FA002005B0BDE8F0836FF01500F9E72D
:1037CC0098590008C85B000837B50446456800697D
:1037DC0010300122114601F07BFD0121A868FDF794
:1037EC0039FF0021286801AA01F0E2FC00282EDB39
:1037FC00019B00221979186800F034F8002826DBA8
:10380C00E968144B99421CD00FD8134B99421AD02B
:10381C00124BCB1A594259418900204641F01001F4
:10382C0003B0BDE83040FFF799BF0D4B99420CD067
:10383C0003F5C31303F5206399420CBF0A21002141
:10384C00EBE70621E9E70221E7E70821E5E703B00A
:10385C0030BD00BF40420F00A0860100801A060058
:10386C0040E133002DE9F041044604274FF00108F4
:10387C00124E00EBC105AC4202D10020BDE8F08134
:10388C00E379A279E178A078FEF710FEE278A178CE
:10389C002388120402F470220A43334461799B009A
:1038AC0017FB01310A6022790834FF2A1FBF1968FF
:1038BC0008FA02F20A431A60DDE700BF10F10014A7
:1038CC0070B5144D88B001AC46680FCD0FC495E8A7
:1038DC00070084E80700B06806F10C0183681B68D8
:1038EC009847002814DB736901A903937068FFF7EC
:1038FC0019F86A460021306801F05AFC002805DBF3
:10390C00009B002219791868FFF7ACFF00EAE07001
:10391C0008B070BDA8590008002213B51146432009
:10392C00FFF7A8FAFDF786FAFDF70CFB154B164CC2
:10393C0018606FF000430028B8BF00F2FF3080120F
:10394C00B3FBF0F3636001232060237301F0D9FA19
:10395C0004F10803D3E8EF2FC3E8E10F0029F9D1F4
:10396C0000232046CDE90033084A234650F8101BAB
:10397C0001F0A3FA002814BF6FF01200002002B06F
:10398C0010BD00BF24000020B40200202F520008FC
:10399C0037B5431C04BF184B5868002828DD164B5C
:1039AC005C68844228BF0446EFF31185102383F32F
:1039BC001288BFF36F8F01F0A4FA104AD2E8AF1F40
:1039CC0052F8082C431A544304339C4212D300235C
:1039DC00CDE90033084B091A094A214403F11000C0
:1039EC0001F04CFA85F31188BFF36F8F03B030BD33
:1039FC000024D9E71444E8E7B4020020BC020020FC
:103A0C002F52000810B5074C207B48B101F079FA11
:103A1C0004F10803D3E8AF3FC01A2368B0FBF3F0FE
:103A2C0010BD00BFB402002038B5EFF31185102390
:103A3C0083F31288BFF36F8F064B9C6801F01DFC5B
:103A4C0085F31188BFF36F8F2046BDE83840FFF730
:103A5C00AFB900BFE402002038B5094B53F8204041
:103A6C00013053F82050A54200D838BD636823B10B
:103A7C00204601F005FC0834F5E723689847FAE77F
:103A8C001C5C000801222DE9F043334B032087B066
:103A9C001A70FFF7E1FF00F047FE01F00DFC042067
:103AAC00FFF7DAFF2D4C2E4D2646AE4204F12C04C6
:103ABC0016D300F055FB4FF4806640F2E737274CE5
:103ACC00DFF8A080AC4227D300F05EFBFCF7B0FC23
:103ADC00254A137B23F00103137307B0BDE8F08371
:103AEC0054F8083C059354F80C3C049354F8103CDF
:103AFC00039354F8143C029354F8183C019354F873
:103B0C001C3C009354E9092354E90B0100F040F9E3
:103B1C0054F82C3C5E65C7E7A36A5A1C0DD00021F3
:103B2C00384623EAE373C3FB060151EA8323D4F836
:103B3C00009004D1484600F0E9FB2C34C2E74FF466
:103B4C007A720023FCF70CFB02460B4609F11800B5
:103B5C00414600F0EFFCF0E71B030020CC580008B6
:103B6C00CC580008C1530008C800002008B5034811
:103B7C00034A0021121A01F09BFB08BD48000020EB
:103B8C00200300200023012270B586B0CDE9042368
:103B9C000F220193CDE9023214234FF4A0720E4D83
:103BAC000E4E03FB00550E4906EBC016044602FBF5
:103BBC0000110C4B3046009500F0EAF8737B2C7426
:103BCC0023F004037373084B013403EBC423EE603E
:103BDC006B6006B070BD00BFE402002048000020FE
:103BEC00200B0020C752000820030020BFB5002086
:103BFC00FFF732FF314B83F308880025F023304C5C
:103C0C00304E84F82230E57725766576A57684F8F3
:103C1C002050E576636A2C4F43F4E0236362636AB9
:103C2C0043F400236362A563E3689BB243F0BF6374
:103C3C0043F40833E36084F82350FFF78DF8FFF763
:103C4C008DF94FF0FF33A362E362FFF713FBFFF72D
:103C5C00A9F940F201121D4B1D4C9A81B360C3E9C6
:103C6C001855DD6601F0F5FAFCF77AFC0120FFF738
:103C7C00F3FE0220FFF7F0FE00F0BAFA154B746168
:103C8C000593012314494FF48062CDE90353204678
:103C9C003B46CDE90155009500F07AF80646627B6B
:103CAC00204622F00402627301F058FB2846FFF70D
:103CBC0069FF3A4631462046FFF734F9200B0020C5
:103CCC0000ED00E0E4020020913A000848010020D9
:103CDC00C8000020395D0008600C002070B5EFF3BF
:103CEC001186102383F31288BFF36F8F0468A042F0
:103CFC001AD0CCB1D4E90032002513605A60637B32
:103D0C00C4E9005523F002036373A56004F11800A5
:103D1C0001F08FFB2046A56701F020FB3146BDE882
:103D2C007040074800F0F6B9D0E902329A4218BF49
:103D3C000133836086F31188BFF36F8F70BD00BFB2
:103D4C001C03002013B5EFF31181102484F31288A7
:103D5C00BFF36F8F846844B1013C846081F3118898
:103D6C00BFF36F8F002002B010BD52EA030406D1DE
:103D7C0081F31188BFF36F8F6FF00F00F3E7CDE97C
:103D8C0000230246014800F099F9ECE71C030020DF
:103D9C002DE9F043984685B000F15803C0E916337D
:103DAC00109B002603730423073222F0070543738C
:103DBC000F9B01EB05090F4683734946C0E9066664
:103DCC008660C6730446FEF70FFE0E9B073020F08C
:103DDC000700A066C4E9187502930D9BA9EB0009B6
:103DEC0001930C9B4A460093394643462046FFF705
:103DFC007DF8054B66659B6803B1DB6E4846E36650
:103E0C0005B0BDE8F08300BFE40200206FF00A01AA
:103E1C00084A93689967084958674B6843F0805380
:103E2C004B60002383F31188BFF36F8F9368986FF7
:103E3C00704700BFE402002000ED00E038B590F9B7
:103E4C000D200146002A437B04DA03F07F03437301
:103E5C0001F04AFA0D4D2A4652F8184FAB689442BD
:103E6C0000D004B9EC68994207D05A7BD20604D131
:103E7C00DA897F2A01D9A2692AB19C4202D0204654
:103E8C0000F09EFA23466B6138BD00BFE4020020AF
:103E9C0070B590F90D30427B002B36DBD10634D156
:103EAC008369002B31D11C4C62F07F024273224695
:103EBC0052F8181F914218BF0B46E16923B9C0E9AB
:103ECC0000210860E0610CE090F90E5093F90E604F
:103EDC00B5421BD0AE4219DD5968C0E9003108600B
:103EEC005860A569954200D005B9E568A3685A7B6E
:103EFC00D20604D1DA897F2A01D9AA6952B1AB4220
:103F0C0002D0284600F05CFA656170BD9942D6D0AB
:103F1C001B68D3E76361F8E7E4020020002A2DE96F
:103F2C00F8430CBF4FF010094FF00809427B0446D0
:103F3C0019EA020F0F4621D149EA0203D2092AD10C
:103F4C004373B9F1080F2CD04FF00008344E3346B0
:103F5C0053F8185F9D4200D005B9F568B368AB42C1
:103F6C0002D0284600F02CFAB9F1100F756144D13B
:103F7C00BFF35F8F637B23F060036373284B9B68F5
:103F8C009C4247D1EFF30583002B43D13846BDE863
:103F9C00F843FFF73BBF03F07F03437301F0A4F931
:103FAC00CFE7A36813B1204601F0A6F904F118007D
:103FBC0001F03FFAA56D04F15806AE4211D04FF056
:103FCC00000875B1284601F097F905F1180001F0C9
:103FDC0030FA2846C5F87880FFF75AFFA56DAE4237
:103FEC00EFD10F4B9B689C42AED1EFF30588B8F133
:103FFC00000818BF4FF00108A8E7B8F1000FB7D0C0
:10400C0040F20112074B9A810022B360C3E91822D7
:10401C00DA66ADE787F31188BFF36F8FBDE8F883DD
:10402C00E40200204801002070B590F90D200146F3
:10403C00002A437B04DA03F07F03437301F054F945
:10404C001D4C4B7B224663F07F034B7352F8183F99
:10405C00E069934208BF002323B9C1E90020016045
:10406C00E1610CE091F90E5093F90E60B5421ED04F
:10407C00AE421CDD5868C1E9003001605960A56989
:10408C00A368954200D005B9E568994207D05A7BE0
:10409C00D20604D1DA897F2A01D9AA692AB19D42B4
:1040AC0002D0284600F08CF92B46636170BD984213
:1040BC00D3D01B68D0E700BFE4020020F8B5124B48
:1040CC000C46DDE9067611469868104A1060EFF34D
:1040DC001182102282F31288BFF36F8F9D682846DD
:1040EC0001F014F9B6F1FF3F08BFB7F1FF3F06D05E
:1040FC003A463346064905F1180000F01BFA2046F3
:10410C00BDE8F840FFF782BEE40200200403002063
:10411C00C153000849B9EFF3058030B9054B5A6912
:10412C009B689A4201D0FFF771BE81F31188BFF3EF
:10413C006F8F7047E4020020034648B9EFF3058205
:10414C0032B9064A51699268914201D0FFF75EBEBE
:10415C0083F31188BFF36F8F704700BFE402002018
:10416C00EFF31181102383F31288BFF36F8F054B8C
:10417C009A68D37B013BD37381F31188BFF36F8FA4
:10418C00704700BFE402002070B5EFF311861023D6
:10419C0083F31288BFF36F8F144DAB68DA7B013257
:1041AC00DA732A4652F8184F944200D004B9EC68DE
:1041BC005A7BD20604D1DA897F2A01D9A2692AB1A5
:1041CC009C4202D0204600F0FBF823466B6186F33C
:1041DC001188BFF36F8FEFF31180102383F31288D4
:1041EC00BFF36F8FBDE87040FFF7A6BFE40200205D
:1041FC00024B03F11802C3E906227047E4020020C7
:10420C00F8B5EFF31186102383F31288BFF36F8F89
:10421C001D4C2146A068437B03F07F03437301F0E0
:10422C0063F8A3685A7B62F07F025A7351F8182F17
:10423C00E0698A4208BF002222B9C3E9001003607A
:10424C00E3610CE093F90E5092F90E70BD4217D059
:10425C00AF4215DD5068C3E9002003605360A569C7
:10426C008D4200D005B9E568A3689D4202D028466E
:10427C0000F0A6F865613046BDE8F840FFF7C6BD12
:10428C008242DAD01268D7E7E402002050EA010338
:10429C002DE9F04105460E4604D1FFF7B1FF002091
:1042AC00BDE8F081831C71F1FF3324DB01F0D6F8FB
:1042BC004419EFF31188102383F31288BFF36F8F27
:1042CC000F4F104BB8681860FFF7B8FDB8680E496F
:1042DC002A463346183000F02DF9BA684046537B15
:1042EC0043F004035373FFF791FD01F0B7F8201A64
:1042FC0020EAE070D4E76FF00104241AD9E700BF7C
:10430C00E402002004030020C153000838B5044621
:10431C00183001F08EF8EFF31185102383F3128817
:10432C00BFF36F8F637B5A0704D485F31188BFF3F7
:10433C006F8F38BD23F0040320466373FFF7A8FD8D
:10434C00EFF30583002BF0D12946BDE83840014836
:10435C00FFF7E0BE1C030020014B9868704700BFBC
:10436C00E40200200122044BC01A044BC010584335
:10437C00034B1A54704700BFC8010020ABAAAAAA6D
:10438C001C030020C3897F2B12D80A4B1B6863B116
:10439C00094B90F90E201B689A4209DB437BDB0624
:1043AC0006D1064BC31A18BF012303F00100704756
:1043BC000023FAE70C03002008030020480000202B
:1043CC0070B50E4B0E4C1E7C054606EB460304EBFB
:1043DC00C304204601F02DF800220A4B28469A55BA
:1043EC00FFF7D0FF48B1084B2046BDE870401A6873
:1043FC000649013AD31700F09DB870BDE4020020C5
:10440C00C80100201C0300200C030020714300088D
:10441C0038B5EFF31185102383F31288BFF36F8F38
:10442C00104B114A9C681068A04206D1FFF7C8FFD8
:10443C0085F31188BFF36F8F38BD00211B7C116091
:10444C000A4AD35C002BF3D02046FFF79BFF0028D1
:10445C00EED0637BDB0602D12046FFF7E5FD20465C
:10446C00E4E700BFE4020020040300201C0300204A
:10447C00074808B5074A0849121A00F01BFFBDE8A7
:10448C0008400648064A0749121A00F013BF00BF3D
:10449C000000002046000020885D0008000000207D
:1044AC0000000020885D0008034B1B680BB9FFF768
:1044BC00A9BA0020704700BF1003002030B570B1BE
:1044CC000B4B5B6898420AD0036843B1D3E90421D3
:1044DC00D0E90445121941EB0501C3E90421D0E9E7
:1044EC00003213605A600023C0E9003330BD00BFB6
:1044FC002800002010B50E4B1C689C4204D1FFF71D
:10450C00D3FF6FF0004010BDFFF7CEFF002CF8D0AA
:10451C00D4E904321B1A62EBE072B3F1004F72F172
:10452C000001EEDA002AACBF18460020EBE700BF12
:10453C0028000020B3F1FF3F08BFB2F1FF3FF8B5F0
:10454C0004461D4616465ED08160EFF3118710239A
:10455C0083F31288BFF36F8F013275F1FF3324DAC6
:10456C006FF001032D49D1E900209B1A4FF0FF3267
:10457C0062EB00009E1B60EB0500012E70F1000346
:10458C0001DA01260020C4E90460254ED6F800C0EB
:10459C007568B44508BF4FF0000CBCF1000F0DD18D
:1045AC00C4E900652C6074601CE0FFF77DFF0136E8
:1045BC0045F10005361845EBE070E4E7DCE9042032
:1045CC00D4E90431934271EB000E1DDAD21ADCF8F7
:1045DC00043060EB0100CCE90420C4E900C31C608A
:1045EC00CCF804403368B34209D09C4207D10D4B40
:1045FC001C6824B9FFF77EFF2146FFF7C9F987F342
:10460C001188BFF36F8FF8BD9B1A61EB0001AC45AD
:10461C00C4E90431C4D0DCF800C0BEE7E0010020DE
:10462C0028000020100300202DE9F84FEFF3118C27
:10463C00102383F31288BFF36F8FDFF8B0A0DFF87D
:10464C00B0900024C9F80000DAF8000000255045AD
:10465C0008BF0020274FE046D7E90021D9F80030E9
:10466C0078B3D0E9046C4FEAE37EB3427EEB0C0BDB
:10467C0005DAF61A6CEB0E04C0E9046421E0B218FA
:10468C0041EBE671C0E90445C7E90021FFF716FFCD
:10469C0088F31188BFF36F8F83689847EFF3118805
:1046AC00102383F31288BFF36F8FD9F80030DAF838
:1046BC0000009B1B5045C446C9F80030CBD1D7E94C
:1046CC00002100249A1841EBE373C7E90023C9F8D1
:1046DC000040FFF70FFF2146FFF75AF988F31188C6
:1046EC00BFF36F8FBDE8F84FFFF792BE2800002094
:1046FC0010030020E001002010B5EFF3118410230B
:10470C0083F31288BFF36F8FFFF7CEFE0346054A83
:10471C00D2E90001181841EBE37184F31188BFF35F
:10472C006F8F10BDE0010020014800F0FBBA00BF04
:10473C003E5D00080FB407B504AA064B52F8041BE3
:10474C001868019200F028F803B05DF804EB04B08F
:10475C00704700BFA05B0008F8B50E4B06461D68FD
:10476C00AB789B0712D56F6816F8014B29462CB90C
:10477C000A20B847002805DB204609E02046B84748
:10478C000028F1DAAB7843F00403AB704FF0FF3044
:10479C00F8BD00BFA05B00082DE9F04F43688DB059
:1047AC0015468046029383789A0740F10D810024C8
:1047BC000E78002E00F00A81252E0BD04B1C039393
:1047CC00013441463046029B98470028C0F2F680DF
:1047DC000399EDE74E788B1C252E0393F0D0002720
:1047EC00B946BB46BBF11F0F38D8A6F12003102BDE
:1047FC000AD8DFE803F02A09093009090921090957
:10480C000928092D09091F00A6F13003092B33D9FA
:10481C002A2E37D11BF0400F55F8043B40F0828014
:10482C00002BA7BF4BF0200B9946C3F100094BF0AE
:10483C00280B01E04BF0010B039B13F8016B039366
:10484C00002ECFD130E04BF0020B4BF0040BF3E712
:10485C004BF0080BF0E74BF0100BEDE7BBF17F0FC3
:10486C0019D8A6F13003092BD2D81BF0400F03D076
:10487C000A2101FB0737DFE70A214BF0200B01FB74
:10488C000939D9E72E2E06D11BF0400F40F09E803F
:10489C004BF0400BD0E76C2E31D02BD8682E36D095
:1048AC006A2E3CD04C2E3AD0002F46F02003B8BFD5
:1048BC002BF04002A3F16501BCBF00271FFA82FB5D
:1048CC00022901D9612B2FD107350727DFF8ACA2BC
:1048DC0025F0070508351BF0080F66D00AEB070B0F
:1048EC0056465E4563D1A4EB0A0AA9EB070906EB11
:1048FC000A026FE1742E9FD07A2E9DD0D4E71BF064
:10490C00800F18BF4BF4007B4BF0800B94E71BF42B
:10491C00807F18BF4BF4007B4BF4807B8CE74BF40F
:10492C00207B89E71F4687E7A6F16301122900F275
:10493C00F080DFE811F013004F00EE00EE00EE0007
:10494C00EE004F00EE00EE00EE00EE00EE00FE007A
:10495C00E900EE00EE001B00EE00AF0055F8043B42
:10496C0001270DF1180A8DF81830B4E755F804AB8F
:10497C00834BBAF1000F08BF9A461BF0400F50460C
:10498C0014BF39464FF0FF3100F081FD0746A2E716
:10499C0041462020029B984700280FDB013EB7427E
:1049AC00F6D34C44B146A41B98E74E46F7E7414674
:1049BC0016F8010B029B9847002892DA98F80230FF
:1049CC0043F0040388F802304FF0FF3420460DB05A
:1049DC00BDE8F08F1BF0800F34D01BF4007F2CD07F
:1049EC00073525F00705AA4669685AF8080B2BF01D
:1049FC0010050029ADB237DA404245F4806561EB11
:104A0C0041010DF1180B0A235A4600F04CFDA0EBA6
:104A1C000B0301936B0662D5019B25F001019F42AC
:104A2C0089B240F3A180002E00F0998015F010029D
:104A3C0040F09C80BB460D4623E0AA465AF8040B76
:104A4C00C117D4E7AA461BF4807F5AF8041B01D186
:104A5C000846F5E71BF4007F19BF48B241F3C011BB
:104A6C0008B241F3C031C2E750EA0103C9D11BF0CF
:104A7C00400FC6D0002FC4D12BF01102BB460197BA
:104A8C0095B240F2064115EA01021CBF0BF1010B75
:104A9C0000222CE02BF010020A231FFA82FB1BF0E1
:104AAC00800C49D01BF4007115BF0735AA4625F0C0
:104ABC0007055AF8040B1EBFAA4669685AF8080B7A
:104ACC0050EA010545D12BF016051BF0400FADB295
:104ADC0042D0002F40D12BF01702019795B215F060
:104AEC00100248D0019B002E42D103F1010B290783
:104AFC005AD4EB0706D5D9456FDDA9EB0B03019909
:104B0C00CB465F185B4649E04BF0100B1023782620
:104B1C00C5E7782B04D1C6F1780343F01003BEE748
:104B2C0041462520029B98470028FFF647AF0234E8
:104B3C0047E608230026B2E7AA461BF480715AF810
:104B4C00040BBDD01BF400711ABFC0B2614680B219
:104B5C00B6E72BF0060295B20DF1180B54E725F0D1
:104B6C001105BB46ADB28CE70D46B8E73B460D468A
:104B7C0003F1020BBBE7DDF804B082E7805D0008AF
:104B8C00795D0008CDE9043241462020029B98470C
:104B9C000028FFF613AF049B059A01339945F1DC0D
:104BAC00A4EB0B019B46CC180AB341463020029B68
:104BBC0098470028FFF602AF8EB901342744391B01
:104BCC00019B994224DC1D4655BB019AA9EB0B09AC
:104BDC00554622441446914433E0019F92E7023437
:104BEC0041463046029B98470028E7DAE6E640F259
:104BFC0006410D42E2D015F0020F04F101044146CA
:104C0C0014BF2B20202015F4806F18BF2D20E9E74E
:104C1C0041463020029B013498470028CFDACDE67C
:104C2C0006AB013D4146585D029B98470028CBDA04
:104C3C00C4E641462020029B013498470028FFF629
:104C4C00BDAEA9EB0403002BF3DCC1E5704700EB10
:104C5C00C100408840087047F8B50346FFF7F7FFDE
:104C6C00B0FA80F0C0F11F0003EB800CDCF8106090
:104C7C00CA00171D0C4606328DB256B9012101FA35
:104C8C0000F0D9680143D960CCF81040DD539D5237
:104C9C00F8BDF1000431585AD85303EBC0009E52B2
:104CAC00C5805D52F4E7043A2DE9F041CC1D114466
:104CBC0024F0070421F007010E1BF708B7FA87F25E
:104CCC004FF00008C2F12405AD000735C2F12002F7
:104CDC00ED0804604146A760C4F80C80920004F112
:104CEC00100000F0CCFB6B0043F0010363807B1BD6
:104CFC0004EBC5025900A4F800805180A21924F8D5
:104D0C003550A2F80280A35304EBC7035A882946F6
:104D1C0042F001025A802046BDE8F041FFF79CBFEB
:104D2C00002070470FB407B504A951F8040B01918A
:104D3C00FBF7DAFB03B05DF804EB04B07047704787
:104D4C00002070474FF4004070474FF47A70704762
:104D5C0000F00BB809B100F00AB82220704701210D
:104D6C00FBF70EBD0021FBF70BBD0020704770B5A3
:104D7C0006460D4600F011F904461F2E52D8DFE806
:104D8C0006F01019511E212451272A512D51303370
:104D9C005136393C513F5142515151514551485175
:104DAC004B4EFBF749FC00262860204600F0FBF830
:104DBC00304670BD4FF4C070FCF766FCF3E74FF45F
:104DCC002070F9E74FF44070F6E74FF46070F3E7AA
:104DDC004FF40070F0E74FF48060EDE74FF4406063
:104DEC00EAE74FF4C060E7E74FF4F060E4E74FF414
:104DFC00B060E1E74FF4D060DEE74FF41060DBE722
:104E0C004FF4E060D8E74FF4A060D5E74FF428608A
:104E1C00D2E74FF48070CFE74FF42060CCE74FF42B
:104E2C004860C9E700202126BEE7FBF7C9BC00217A
:104E3C000846FBF779BE00F00101830748BF41F03B
:104E4C0002010020FBF756BE38B500F0A6F8044668
:104E5C000020FBF761FE830700F0010548BF45F019
:104E6C00020500F003010020FBF750FE2846FCF77A
:104E7C006FF82046BDE8384000F095B82DE9FF41A9
:104E8C000D4616461F460446A8B14FF00008C0F860
:104E9C001C80FCF709F8BDF82C30424602939DF8B3
:104EAC0028302946CDE9007320463346FBF762FFD4
:104EBC0004B0BDE8F0812220FAE7F0B51F460023CC
:104ECC0087B00D46164604468DF81730A8B1C3615D
:104EDC000DF11701FCF718F89DF817207AB9BDF8F9
:104EEC003430294602939DF830302046CDE90073CA
:104EFC003346FBF73FFF07B0F0BD2220FBE7032052
:104F0C00F9E738B500F049F80546FBF75FFE0446B3
:104F1C00284600F048F8204638BD70B505461446C2
:104F2C000E4600F033F82B685C4034405C402C603B
:104F3C00BDE8704000F02EB808B5FBF7A9FBBDE842
:104F4C0008400021FCF75ABB0029CCBF01210021ED
:104F5C00FCF754BB02214FF42070FCF729BF38B585
:104F6C000446FBF783FB0546FCF78CF8C0F1020105
:104F7C002846FFF7E9FF01210020FDF767F90CB186
:104F8C00FCF798FFBDE83840FCF77EBCEFF31080CF
:104F9C0072B6704700B962B67047EFF311803023D8
:104FAC0083F31188704780F31188704770477047FE
:104FBC0070B5054614460E46FFF7E8FF2B685C40BB
:104FCC0034405C402C60BDE87040FFF7E3BF043018
:104FDC0021B100F5805001230360704700F50050AB
:104FEC00F9E783691B06FCD5406AC0B27047836938
:104FFC005B06FCD5C1637047012801D1EFF3058333
:10500C00FEF712BD01460068FFF7F6BF08B5FDF7C5
:10501C00E7FCBDE80840FDF707BD00210120FFF7C4
:10502C00EBBF61B662B680F31188BFF36F8F704728
:10503C0072B6002383F31188BFF36F8FBFF34F8FCA
:10504C0030BF62B6BFF36F8F704740E800F313F4C4
:10505C00803FD8B208BF6FF01500704730B50C68B0
:10506C004B6885B00A894D890094013B24F01F04DC
:10507C00234402F01F0242EA451223F01F03694643
:10508C008DF808200393FDF7C3FF05B030BD08B5BC
:10509C00FEF77EF9002008BD0B684268591C14D03D
:1050AC0013F4E07FC3F3821103D001290AD001204D
:1050BC0070471268506E03F03F03D84000F00100B7
:1050CC00013070471268906EF5E70320704708B501
:1050DC000B4611461879FFF73DFE002814BF6FF000
:1050EC008500002008BD084608B5FFF73BFE0028E8
:1050FC0014BF6FF08500002008BD10B50C46FFF7FB
:10510C00CBFF022808D02046FFF729FE002814BF49
:10511C006FF08500002010BD6FF07700FBE708B53D
:10512C00FFF716FE002008BD3022436800201B79D3
:10513C00534303F1A04303F570335B6C0B60704772
:10514C00436830201B79434303F1A04303F57033CC
:10515C00186C42400A4042401A640020704710B557
:10516C0003695868F8B1884219D19C680868A14253
:10517C00586000D19860002008602AB15A680A6013
:10518C009A68596002B99960002010E0814206D1FA
:10519C000868206098688142EDD19C60EBE704467A
:1051AC0000680028F2D1002AE8D16FF0150010BD7C
:1051BC0030B5036813600579046804EBC504A34299
:1051CC0002D36FF0010030BD5C798C4201D0083302
:1051DC00F0E70020F7E743685B689A6C03F500532F
:1051EC00C2F30010D10548BF40F0020092054FF405
:1051FC00447248BF40F004009A6470474368586892
:10520C00FFF7F5BE10B543680C46586883691B065A
:10521C0004D5FFF7E6FE2070002010BD4FF0FF30E4
:10522C00FBE710B50C46FFF76CFE04F10802D2E860
:10523C00AF3F2168C01AB0FBF1F000FB0133D2E89C
:10524C00EF1FC2E8E43F002CF9D1BDE81040FFF796
:10525C00EBB9704740B1C368587810F001001EBF1D
:10526C001878B0FA80F040097047EFF311831023DF
:10527C0083F31288BFF36F8FFEE708B5FFF7F5FFD6
:10528C0010B5D0E9003433B90020E268537843F00C
:10529C000103537010BD204698470028F4D0002815
:1052AC00B8BF4042FF28A8BFFF20E3681870ECE7A6
:1052BC0000F0E5B800F0D6B87047102408B5EFF34D
:1052CC00118384F31288BFF36F8FFFF7B1FEF6E7FB
:1052DC003AB18A4205D3C0E90212C0E900000020AD
:1052EC0070476FF015007047D0E9003213605A60B8
:1052FC000023C0E90033704708B5FFF7F5FF437B87
:10530C0023F0020343730023836008BD38B50446C1
:10531C000D46FEF793FD637B43F002036373E5B127
:10532C00A5602B689D4209D16B68C4E900531C60D1
:10533C006C6012E06A689A42F6D01B68002BF3D0BE
:10534C0094F90E2093F90E108A42F3D09142F1DDBC
:10535C005A68C4E9003214605C6038BD10B5EFF3D4
:10536C001184102383F31288BFF36F8FFEF790FD27
:10537C0084F31188BFF36F8F10BD014610B5EFF3A6
:10538C001184102383F31288BFF36F8F437B13F0C8
:10539C00280F0AD183680BB1FFF7AEFF4B7B084691
:1053AC0023F004034B73FEF773FD84F31188BFF3F2
:1053BC006F8F10BD01211838FFF7DFBF38B50C46D1
:1053CC000546FEF763FFB4F1FF3F08BFB5F1FF3FA1
:1053DC001FBF40F2FF3300224FF47A71C0FB013241
:1053EC0016BF980A4FF0FF3040EA825038BDEFF3F9
:1053FC001181102282F31288BFF36F8F027BD207C8
:10540C000CD581F31188BFF36F8F002383F31188C0
:10541C00BFF36F8F0423184602DF7047437B1B07D3
:10542C0004D581F31188BFF36F8F70470122FEF70B
:10543C0075BD10B5EFF31184102282F31288BFF3FF
:10544C006F8F03683BB1FFF739F8002084F31188A4
:10545C00BFF36F8F10BD6FF01500F7E708B5FFF7BE
:10546C004BF908BD0A44431E914200D1704710B558
:10547C0011F8014B914203F8014FF9D110BD0244D0
:10548C000346934200D1704703F8011BF9E702462B
:10549C00014410B58A42134603D01C780132002C0B
:1054AC00F8D1181A10BDF0B5C3F13707044603F054
:1054BC001F031046FFB2082BE6B232D0102B3DD0A2
:1054CC006508A40845EAC17544EA81748A082D1957
:1054DC0042EB5102290941EA02716D1842EB12129A
:1054EC00290A41EA02616D1842EB1222290C41EAA9
:1054FC0002416D1842EB1242AD1842F10002EC0869
:10550C0044EA4274D10804EB8402A6EB4205EDB2E6
:10551C00092D0CD90134A5F10A0541F10001EDB2B8
:10552C0012E0E40806F0070544EA4174C908303576
:10553C0054EA010200F8015BBDD1F0BD240906F06C
:10554C000F0544EA01740909092D84BFED19EDB268
:10555C00EDE70000014800687047000014020020CD
:08556C0034ACFF7F01000000D8
:105574002B510008D455000861350008E85500088F
:10558400CD380008FC550008E9330008000000008D
:105594002539000800000000C533000800000000A1
:1055A4002936000838560008993500084C5600087A
:1055B40015360008245600083D3600081056000829
:1055C4005136000800000000D53700086056000876
:1055D400C85C0008A45B00082C59000836000020B1
:1055E400000000000F5D00081D5D0008CC58000895
:1055F400400000207C0200202A5D0008F45B0008C3
:1056040048590008440000201B030020D75C000810
:10561400A85B0008F0580008380000203C02002075
:10562400E55C0008B05B0008F05800083A00002070
:105634004C020020F35C0008B85B0008F058000836
:105644003C0000205C020020015D0008C05B0008F3
:10565400F05800083E0000206C0200201D5D000888
:10566400D45B000814590008420000209002002076
:105674000000000027500008000000002750000828
:105684000000000027500008000000002750000818
:105694000000000027500008000000002750000808
:1056A40000000000275000080000000027500008F8
:1056B40000000000275000080000000027500008E8
:1056C40000000000275000080000000027500008D8
:1056D40000000000275000080000000027500008C8
:1056E40000000000275000080000000027500008B8
:1056F40000000000275000080000000027500008A8
:105704000000000027500008000000002750000897
:105714000000000027500008000000002750000887
:105724000000000027500008000000002750000877
:105734000000000027500008E8550008AD350008B7
:10574400E8550008AD3500080000000027500008A7
:105754000000000027500008000000002750000847
:105764000000000027500008000000002750000837
:105774000000000027500008000000002750000827
:105784000000000027500008000000002750000817
:105794000000000027500008000000002750000807
:1057A40000000000275000080000000027500008F7
:1057B40000000000275000080000000027500008E7
:1057C40000000000275000080000000027500008D7
:1057D40000000000275000080000000027500008C7
:1057E40000000000275000080000000027500008B7
:1057F40000000000275000080000000027500008A7
:105804000000000027500008000000002750000896
:105814000000000027500008000000002750000886
:105824000000000027500008000000002750000876
:105834000000000027500008000000002750000866
:105844000000000027500008000000002750000856
:105854000000000027500008000000002750000846
:105864000000000027500008000000002750000836
:105874000000000027500008000000002750000826
:10588400000000002750000800000000554E0008EA
:105894000000000027500008000000002750000806
:1058A40000000000275000080000000027500008F6
:1058B40000000000275000080000000027500008E6
:0858C40000000000275000085D
:1058CC0000000000000000000000000000000000CC
:1058DC000000000000000000000000006B510008F8
:1058EC0000000000F1340008355100084D5100084B
:1058FC00393400084D340008613400087534000850
:08590C006B51000800000000CF
:105914006937000800000000853600080000000018
:0859240000000000000000007B
:10592C0007510008F350000800000000DB5000088D
:0C593C00A5500008000000000000000062
:105948001152000809520008E35100080000000045
:04595800000000004B
:10595C00012600000400000000000000000100000F
:10596C00000000000B0000000C0000000300000011
:10597C000000202000000000020000003C3C3C0025
:10598C000000000000000000000000000101000009
:10599C0000000000A08601000000000005000000CF
:1059AC000000000000C20100000500000010000013
:1059BC0000000000000000000103100101090300B9
:1059CC0000800A5013000000D85900081E00000087
:1059DC00A0BB0D00C07A1000001F408240420F0097
:1059EC00C07A100020D613003A1F41A2000000001C
:1059FC0020D61300905817003A1F42A20000000056
:105A0C009058170040771B003A9F43B600000000E7
:105A1C0040771B0070CE2000001F408180841E0048
:105A2C0070CE200040AC27003A1F41A100000000BE
:105A3C0040AC2700108A2E003A1F42A10000000043
:105A4C00108A2E0080EE36003A9F43B5000000000D
:105A5C0080EE3600E09C4100001F408000093D00B4
:105A6C00E09C410080584F003A1F41A0000000000C
:105A7C0080584F0020145D003A1F42A00000000027
:105A8C0020145D00C0047700009F43B4C0CF6A00AF
:105A9C00C0047700408995003A9F44B40000000090
:105AAC0040899500C00DB4003A9F45B40000000039
:105ABC00C00DB40000BADB00009F66B4405DC600A8
